{"abi":[{"type":"constructor","inputs":[{"name":"_stakingToken","type":"address","internalType":"address"},{"name":"_rewardToken","type":"address","internalType":"address"},{"name":"initialOwner","type":"address","internalType":"address"}],"stateMutability":"nonpayable"},{"type":"function","name":"balanceOf","inputs":[{"name":"account","type":"address","internalType":"address"}],"outputs":[{"name":"","type":"uint256","internalType":"uint256"}],"stateMutability":"view"},{"type":"function","name":"earned","inputs":[{"name":"account","type":"address","internalType":"address"}],"outputs":[{"name":"","type":"uint256","internalType":"uint256"}],"stateMutability":"view"},{"type":"function","name":"exit","inputs":[],"outputs":[],"stateMutability":"nonpayable"},{"type":"function","name":"getReward","inputs":[],"outputs":[],"stateMutability":"nonpayable"},{"type":"function","name":"lastUpdateTime","inputs":[],"outputs":[{"name":"","type":"uint256","internalType":"uint256"}],"stateMutability":"view"},{"type":"function","name":"owner","inputs":[],"outputs":[{"name":"","type":"address","internalType":"address"}],"stateMutability":"view"},{"type":"function","name":"renounceOwnership","inputs":[],"outputs":[],"stateMutability":"nonpayable"},{"type":"function","name":"rewardPerToken","inputs":[],"outputs":[{"name":"","type":"uint256","internalType":"uint256"}],"stateMutability":"view"},{"type":"function","name":"rewardPerTokenStored","inputs":[],"outputs":[{"name":"","type":"uint256","internalType":"uint256"}],"stateMutability":"view"},{"type":"function","name":"rewardRate","inputs":[],"outputs":[{"name":"","type":"uint256","internalType":"uint256"}],"stateMutability":"view"},{"type":"function","name":"rewardToken","inputs":[],"outputs":[{"name":"","type":"address","internalType":"contract IERC20"}],"stateMutability":"view"},{"type":"function","name":"rewards","inputs":[{"name":"","type":"address","internalType":"address"}],"outputs":[{"name":"","type":"uint256","internalType":"uint256"}],"stateMutability":"view"},{"type":"function","name":"setRewardRate","inputs":[{"name":"_rewardRate","type":"uint256","internalType":"uint256"}],"outputs":[],"stateMutability":"nonpayable"},{"type":"function","name":"stake","inputs":[{"name":"amount","type":"uint256","internalType":"uint256"}],"outputs":[],"stateMutability":"nonpayable"},{"type":"function","name":"stakingToken","inputs":[],"outputs":[{"name":"","type":"address","internalType":"contract IERC20"}],"stateMutability":"view"},{"type":"function","name":"totalSupply","inputs":[],"outputs":[{"name":"","type":"uint256","internalType":"uint256"}],"stateMutability":"view"},{"type":"function","name":"transferOwnership","inputs":[{"name":"newOwner","type":"address","internalType":"address"}],"outputs":[],"stateMutability":"nonpayable"},{"type":"function","name":"userRewardPerTokenPaid","inputs":[{"name":"","type":"address","internalType":"address"}],"outputs":[{"name":"","type":"uint256","internalType":"uint256"}],"stateMutability":"view"},{"type":"function","name":"withdraw","inputs":[{"name":"amount","type":"uint256","internalType":"uint256"}],"outputs":[],"stateMutability":"nonpayable"},{"type":"event","name":"OwnershipTransferred","inputs":[{"name":"previousOwner","type":"address","indexed":true,"internalType":"address"},{"name":"newOwner","type":"address","indexed":true,"internalType":"address"}],"anonymous":false},{"type":"event","name":"RewardPaid","inputs":[{"name":"user","type":"address","indexed":true,"internalType":"address"},{"name":"reward","type":"uint256","indexed":false,"internalType":"uint256"}],"anonymous":false},{"type":"event","name":"RewardRateUpdated","inputs":[{"name":"newRate","type":"uint256","indexed":false,"internalType":"uint256"}],"anonymous":false},{"type":"event","name":"Staked","inputs":[{"name":"user","type":"address","indexed":true,"internalType":"address"},{"name":"amount","type":"uint256","indexed":false,"internalType":"uint256"}],"anonymous":false},{"type":"event","name":"Withdrawn","inputs":[{"name":"user","type":"address","indexed":true,"internalType":"address"},{"name":"amount","type":"uint256","indexed":false,"internalType":"uint256"}],"anonymous":false},{"type":"error","name":"OwnableInvalidOwner","inputs":[{"name":"owner","type":"address","internalType":"address"}]},{"type":"error","name":"OwnableUnauthorizedAccount","inputs":[{"name":"account","type":"address","internalType":"address"}]},{"type":"error","name":"SafeERC20FailedOperation","inputs":[{"name":"token","type":"address","internalType":"address"}]}],"bytecode":{"object":"0x60c06040526064600155348015610014575f5ffd5b5060405161189f38038061189f83398181016040528101906100369190610246565b805f73ffffffffffffffffffffffffffffffffffffffff168173ffffffffffffffffffffffffffffffffffffffff16036100a7575f6040517f1e4fbdf700000000000000000000000000000000000000000000000000000000815260040161009e91906102a5565b60405180910390fd5b6100b68161012760201b60201c565b508273ffffffffffffffffffffffffffffffffffffffff1660808173ffffffffffffffffffffffffffffffffffffffff16815250508173ffffffffffffffffffffffffffffffffffffffff1660a08173ffffffffffffffffffffffffffffffffffffffff16815250505050506102be565b5f5f5f9054906101000a900473ffffffffffffffffffffffffffffffffffffffff169050815f5f6101000a81548173ffffffffffffffffffffffffffffffffffffffff021916908373ffffffffffffffffffffffffffffffffffffffff1602179055508173ffffffffffffffffffffffffffffffffffffffff168173ffffffffffffffffffffffffffffffffffffffff167f8be0079c531659141344cd1fd0a4f28419497f9722a3daafe3b4186f6b6457e060405160405180910390a35050565b5f5ffd5b5f73ffffffffffffffffffffffffffffffffffffffff82169050919050565b5f610215826101ec565b9050919050565b6102258161020b565b811461022f575f5ffd5b50565b5f815190506102408161021c565b92915050565b5f5f5f6060848603121561025d5761025c6101e8565b5b5f61026a86828701610232565b935050602061027b86828701610232565b925050604061028c86828701610232565b9150509250925092565b61029f8161020b565b82525050565b5f6020820190506102b85f830184610296565b92915050565b60805160a0516115ab6102f45f395f81816108850152610e6501525f8181610685015281816109770152610c8a01526115ab5ff3fe608060405234801561000f575f5ffd5b506004361061011e575f3560e01c80638b876347116100ab578063cd3daf9d1161006f578063cd3daf9d146102e0578063df136d65146102fe578063e9fad8ee1461031c578063f2fde38b14610326578063f7c618c1146103425761011e565b80638b8763471461023c5780638da5cb5b1461026c5780639e447fc61461028a578063a694fc3a146102a6578063c8f33c91146102c25761011e565b80633d18b912116100f25780633d18b912146101bc57806370a08231146101c6578063715018a6146101f657806372f702f3146102005780637b0a47ee1461021e5761011e565b80628cc262146101225780630700037d1461015257806318160ddd146101825780632e1a7d4d146101a0575b5f5ffd5b61013c600480360381019061013791906111af565b610360565b60405161014991906111f2565b60405180910390f35b61016c600480360381019061016791906111af565b61045b565b60405161017991906111f2565b60405180910390f35b61018a610470565b60405161019791906111f2565b60405180910390f35b6101ba60048036038101906101b59190611235565b610479565b005b6101c461071b565b005b6101e060048036038101906101db91906111af565b61091c565b6040516101ed91906111f2565b60405180910390f35b6101fe610962565b005b610208610975565b60405161021591906112bb565b60405180910390f35b610226610999565b60405161023391906111f2565b60405180910390f35b610256600480360381019061025191906111af565b61099f565b60405161026391906111f2565b60405180910390f35b6102746109b4565b60405161028191906112e3565b60405180910390f35b6102a4600480360381019061029f9190611235565b6109db565b005b6102c060048036038101906102bb9190611235565b610afd565b005b6102ca610d21565b6040516102d791906111f2565b60405180910390f35b6102e8610d27565b6040516102f591906111f2565b60405180910390f35b610306610d89565b60405161031391906111f2565b60405180910390f35b610324610d8f565b005b610340600480360381019061033b91906111af565b610ddf565b005b61034a610e63565b60405161035791906112bb565b60405180910390f35b5f60075f8373ffffffffffffffffffffffffffffffffffffffff1673ffffffffffffffffffffffffffffffffffffffff1681526020019081526020015f2054670de0b6b3a764000060065f8573ffffffffffffffffffffffffffffffffffffffff1673ffffffffffffffffffffffffffffffffffffffff1681526020019081526020015f20546103ee610d27565b6103f89190611329565b60055f8673ffffffffffffffffffffffffffffffffffffffff1673ffffffffffffffffffffffffffffffffffffffff1681526020019081526020015f2054610440919061135c565b61044a91906113ca565b61045491906113fa565b9050919050565b6007602052805f5260405f205f915090505481565b5f600454905090565b33610482610d27565b600381905550426002819055505f73ffffffffffffffffffffffffffffffffffffffff168173ffffffffffffffffffffffffffffffffffffffff1614610551576104cb81610360565b60075f8373ffffffffffffffffffffffffffffffffffffffff1673ffffffffffffffffffffffffffffffffffffffff1681526020019081526020015f208190555060035460065f8373ffffffffffffffffffffffffffffffffffffffff1673ffffffffffffffffffffffffffffffffffffffff1681526020019081526020015f20819055505b5f8211610593576040517f08c379a000000000000000000000000000000000000000000000000000000000815260040161058a90611487565b60405180910390fd5b8160055f3373ffffffffffffffffffffffffffffffffffffffff1673ffffffffffffffffffffffffffffffffffffffff1681526020019081526020015f20541015610613576040517f08c379a000000000000000000000000000000000000000000000000000000000815260040161060a906114ef565b60405180910390fd5b8160045f8282546106249190611329565b925050819055508160055f3373ffffffffffffffffffffffffffffffffffffffff1673ffffffffffffffffffffffffffffffffffffffff1681526020019081526020015f205f8282546106779190611329565b925050819055506106c933837f000000000000000000000000000000000000000000000000000000000000000073ffffffffffffffffffffffffffffffffffffffff16610e879092919063ffffffff16565b3373ffffffffffffffffffffffffffffffffffffffff167f7084f5476618d8e60b11ef0d7d3f06914655adb8793e28ff7f018d4c76d505d58360405161070f91906111f2565b60405180910390a25050565b33610724610d27565b600381905550426002819055505f73ffffffffffffffffffffffffffffffffffffffff168173ffffffffffffffffffffffffffffffffffffffff16146107f35761076d81610360565b60075f8373ffffffffffffffffffffffffffffffffffffffff1673ffffffffffffffffffffffffffffffffffffffff1681526020019081526020015f208190555060035460065f8373ffffffffffffffffffffffffffffffffffffffff1673ffffffffffffffffffffffffffffffffffffffff1681526020019081526020015f20819055505b5f60075f3373ffffffffffffffffffffffffffffffffffffffff1673ffffffffffffffffffffffffffffffffffffffff1681526020019081526020015f205490505f811115610918575f60075f3373ffffffffffffffffffffffffffffffffffffffff1673ffffffffffffffffffffffffffffffffffffffff1681526020019081526020015f20819055506108c933827f000000000000000000000000000000000000000000000000000000000000000073ffffffffffffffffffffffffffffffffffffffff16610e879092919063ffffffff16565b3373ffffffffffffffffffffffffffffffffffffffff167fe2403640ba68fed3a2f88b7557551d1993f84b99bb10ff833f0cf8db0c5e04868260405161090f91906111f2565b60405180910390a25b5050565b5f60055f8373ffffffffffffffffffffffffffffffffffffffff1673ffffffffffffffffffffffffffffffffffffffff1681526020019081526020015f20549050919050565b61096a610eda565b6109735f610f61565b565b7f000000000000000000000000000000000000000000000000000000000000000081565b60015481565b6006602052805f5260405f205f915090505481565b5f5f5f9054906101000a900473ffffffffffffffffffffffffffffffffffffffff16905090565b6109e3610eda565b5f6109ec610d27565b600381905550426002819055505f73ffffffffffffffffffffffffffffffffffffffff168173ffffffffffffffffffffffffffffffffffffffff1614610abb57610a3581610360565b60075f8373ffffffffffffffffffffffffffffffffffffffff1673ffffffffffffffffffffffffffffffffffffffff1681526020019081526020015f208190555060035460065f8373ffffffffffffffffffffffffffffffffffffffff1673ffffffffffffffffffffffffffffffffffffffff1681526020019081526020015f20819055505b816001819055507f41d466ebd06fb97e7786086ac8b69b7eb7da798592036251291d34e9791cde0182604051610af191906111f2565b60405180910390a15050565b33610b06610d27565b600381905550426002819055505f73ffffffffffffffffffffffffffffffffffffffff168173ffffffffffffffffffffffffffffffffffffffff1614610bd557610b4f81610360565b60075f8373ffffffffffffffffffffffffffffffffffffffff1673ffffffffffffffffffffffffffffffffffffffff1681526020019081526020015f208190555060035460065f8373ffffffffffffffffffffffffffffffffffffffff1673ffffffffffffffffffffffffffffffffffffffff1681526020019081526020015f20819055505b5f8211610c17576040517f08c379a0000000000000000000000000000000000000000000000000000000008152600401610c0e90611557565b60405180910390fd5b8160045f828254610c2891906113fa565b925050819055508160055f3373ffffffffffffffffffffffffffffffffffffffff1673ffffffffffffffffffffffffffffffffffffffff1681526020019081526020015f205f828254610c7b91906113fa565b92505081905550610ccf3330847f000000000000000000000000000000000000000000000000000000000000000073ffffffffffffffffffffffffffffffffffffffff16611022909392919063ffffffff16565b3373ffffffffffffffffffffffffffffffffffffffff167f9e71bc8eea02a63969f509818f2dafb9254532904319f9dbda79b67bd34a5f3d83604051610d1591906111f2565b60405180910390a25050565b60025481565b5f5f60045403610d3b576003549050610d86565b600454670de0b6b3a764000060015460025442610d589190611329565b610d62919061135c565b610d6c919061135c565b610d7691906113ca565b600354610d8391906113fa565b90505b90565b60035481565b610dd560055f3373ffffffffffffffffffffffffffffffffffffffff1673ffffffffffffffffffffffffffffffffffffffff1681526020019081526020015f2054610479565b610ddd61071b565b565b610de7610eda565b5f73ffffffffffffffffffffffffffffffffffffffff168173ffffffffffffffffffffffffffffffffffffffff1603610e57575f6040517f1e4fbdf7000000000000000000000000000000000000000000000000000000008152600401610e4e91906112e3565b60405180910390fd5b610e6081610f61565b50565b7f000000000000000000000000000000000000000000000000000000000000000081565b610e948383836001611077565b610ed557826040517f5274afe7000000000000000000000000000000000000000000000000000000008152600401610ecc91906112e3565b60405180910390fd5b505050565b610ee26110d9565b73ffffffffffffffffffffffffffffffffffffffff16610f006109b4565b73ffffffffffffffffffffffffffffffffffffffff1614610f5f57610f236110d9565b6040517f118cdaa7000000000000000000000000000000000000000000000000000000008152600401610f5691906112e3565b60405180910390fd5b565b5f5f5f9054906101000a900473ffffffffffffffffffffffffffffffffffffffff169050815f5f6101000a81548173ffffffffffffffffffffffffffffffffffffffff021916908373ffffffffffffffffffffffffffffffffffffffff1602179055508173ffffffffffffffffffffffffffffffffffffffff168173ffffffffffffffffffffffffffffffffffffffff167f8be0079c531659141344cd1fd0a4f28419497f9722a3daafe3b4186f6b6457e060405160405180910390a35050565b6110308484848460016110e0565b61107157836040517f5274afe700000000000000000000000000000000000000000000000000000000815260040161106891906112e3565b60405180910390fd5b50505050565b5f5f63a9059cbb60e01b9050604051815f525f1960601c86166004528460245260205f60445f5f8b5af1925060015f511483166110cb5783831516156110bf573d5f823e3d81fd5b5f873b113d1516831692505b806040525050949350505050565b5f33905090565b5f5f6323b872dd60e01b9050604051815f525f1960601c87166004525f1960601c86166024528460445260205f60645f5f8c5af1925060015f5114831661113e578383151615611132573d5f823e3d81fd5b5f883b113d1516831692505b806040525f606052505095945050505050565b5f5ffd5b5f73ffffffffffffffffffffffffffffffffffffffff82169050919050565b5f61117e82611155565b9050919050565b61118e81611174565b8114611198575f5ffd5b50565b5f813590506111a981611185565b92915050565b5f602082840312156111c4576111c3611151565b5b5f6111d18482850161119b565b91505092915050565b5f819050919050565b6111ec816111da565b82525050565b5f6020820190506112055f8301846111e3565b92915050565b611214816111da565b811461121e575f5ffd5b50565b5f8135905061122f8161120b565b92915050565b5f6020828403121561124a57611249611151565b5b5f61125784828501611221565b91505092915050565b5f819050919050565b5f61128361127e61127984611155565b611260565b611155565b9050919050565b5f61129482611269565b9050919050565b5f6112a58261128a565b9050919050565b6112b58161129b565b82525050565b5f6020820190506112ce5f8301846112ac565b92915050565b6112dd81611174565b82525050565b5f6020820190506112f65f8301846112d4565b92915050565b7f4e487b71000000000000000000000000000000000000000000000000000000005f52601160045260245ffd5b5f611333826111da565b915061133e836111da565b9250828203905081811115611356576113556112fc565b5b92915050565b5f611366826111da565b9150611371836111da565b925082820261137f816111da565b91508282048414831517611396576113956112fc565b5b5092915050565b7f4e487b71000000000000000000000000000000000000000000000000000000005f52601260045260245ffd5b5f6113d4826111da565b91506113df836111da565b9250826113ef576113ee61139d565b5b828204905092915050565b5f611404826111da565b915061140f836111da565b9250828201905080821115611427576114266112fc565b5b92915050565b5f82825260208201905092915050565b7f43616e6e6f7420776974686472617720300000000000000000000000000000005f82015250565b5f61147160118361142d565b915061147c8261143d565b602082019050919050565b5f6020820190508181035f83015261149e81611465565b9050919050565b7f496e73756666696369656e742062616c616e636520746f2077697468647261775f82015250565b5f6114d960208361142d565b91506114e4826114a5565b602082019050919050565b5f6020820190508181035f830152611506816114cd565b9050919050565b7f43616e6e6f74207374616b6520300000000000000000000000000000000000005f82015250565b5f611541600e8361142d565b915061154c8261150d565b602082019050919050565b5f6020820190508181035f83015261156e81611535565b905091905056fea2646970667358221220663e505a812674590fb324822a48f07df0c4f79f7b464fb1eb0a7141d722175b64736f6c634300081b0033","linkReferences":{}},"methodIdentifiers":{"balanceOf(address)":"70a08231","earned(address)":"008cc262","exit()":"e9fad8ee","getReward()":"3d18b912","lastUpdateTime()":"c8f33c91","owner()":"8da5cb5b","renounceOwnership()":"715018a6","rewardPerToken()":"cd3daf9d","rewardPerTokenStored()":"df136d65","rewardRate()":"7b0a47ee","rewardToken()":"f7c618c1","rewards(address)":"0700037d","setRewardRate(uint256)":"9e447fc6","stake(uint256)":"a694fc3a","stakingToken()":"72f702f3","totalSupply()":"18160ddd","transferOwnership(address)":"f2fde38b","userRewardPerTokenPaid(address)":"8b876347","withdraw(uint256)":"2e1a7d4d"},"id":14}